:020000040800F2
:1000000000500020F50A0008990A00089F0A00081D
:10001000A50A0008AB0A0008B10A000800000000A9
:10002000000000000000000000000000B70A000807
:10003000C30A000800000000CF0A0008DB0A00081D
:100040003D0B00083D0B00083D0B00083D0B000870
:100050003D0B00083D0B00083D0B00083D0B000860
:100060003D0B00083D0B00083D0B00083D0B000850
:100070003D0B00083D0B00083D0B00083D0B000840
:100080003D0B00083D0B00083D0B00083D0B000830
:100090003D0B00083D0B00083D0B00083D0B000820
:1000A0003D0B00083D0B00083D0B00083D0B000810
:1000B0003D0B00083D0B00083D0B00083D0B000800
:1000C0003D0B00083D0B00083D0B00083D0B0008F0
:1000D0003D0B00083D0B00083D0B00083D0B0008E0
:1000E0003D0B00083D0B00083D0B00080000000020
:1000F0000000000000000000000000000000000000
:0C01000000000000000000005FF808F1A3
:10010C0010B5054C237833B9044B13B10448AFF345
:10011C0000800123237010BD0C00002000000000A3
:10012C006019000808B5034B1BB103490348AFF332
:10013C00008008BD000000001000002060190008BD
:10014C0080B483B000AF786039603A687B68DA605D
:10015C0000BF0C37BD4680BC7047000080B500AFB7
:10016C0000F0E8FC00220821D44800F0D1FF002167
:10017C00D348FFF7E5FF00221021D04800F0C8FF5C
:10018C000021CF48FFF7DCFF00222021CB4800F0F4
:10019C00BFFF0021CA48FFF7D3FF00F0A3FB00F01C
:1001AC00DDFB01220821C54800F0B2FF5521C448EF
:1001BC00FFF7C6FF01221021C04800F0A9FF55210E
:1001CC00BF48FFF7BDFF01222021BC4800F0A0FF73
:1001DC005521BB48FFF7B4FFFA2000F00DFD0122BA
:1001EC000821B64800F094FFAA21B548FFF7A8FFF4
:1001FC0001221021B14800F08BFF5521B048FFF7C8
:10020C009FFF01222021AD4800F082FFAA21AC48BB
:10021C00FFF796FFFA2000F0EFFC01220821A74817
:10022C0000F076FF5521A648FFF78AFF0122102126
:10023C00A24800F06DFF5521A148FFF781FF012274
:10024C0020219E4800F064FF55219D48FFF778FF60
:10025C00FA2000F0D1FC01220821984800F058FF48
:10026C00AA219748FFF76CFF01221021934800F058
:10027C004FFF55219248FFF763FF012220218F4841
:10028C0000F046FFAA218E48FFF75AFFFA2000F033
:10029C00B3FC01220821894800F03AFF002188486C
:1002AC00FFF74EFF01221021844800F031FF00219E
:1002BC008348FFF745FF01222021804800F028FFEA
:1002CC0000217F48FFF73CFFFA2000F095FC01224B
:1002DC0008217A4800F01CFF55217948FFF730FFC0
:1002EC0001222021754800F013FF55217448FFF7B7
:1002FC0027FF00221021714800F00AFFFA2000F0BD
:10030C007BFC002208216D4800F002FF55216C484F
:10031C00FFF716FF00222021684800F0F9FE552156
:10032C006748FFF70DFF01221021644800F0F0FE32
:10033C004FF480716248FFF703FFFA2000F05CFC79
:10034C00012208215D4800F0E3FE55215C48FFF7CF
:10035C00F7FE01222021594800F0DAFE55215848B9
:10036C00FFF7EEFE00221021544800F0D1FEFA20D7
:10037C0000F042FC01220821504800F0C9FEAA21DD
:10038C004F48FFF7DDFE002210214C4800F0C0FE64
:10039C0001222021494800F0BBFEAA214848FFF762
:1003AC00CFFEFA2000F028FC00220821434800F080
:1003BC00AFFE55214248FFF7C3FE002220213F48E3
:1003CC0000F0A6FE55213E48FFF7BAFE012210218F
:1003DC003A4800F09DFE4FF480713948FFF7B0FEAB
:1003EC00FA2000F009FC01220821344800F090FEAC
:1003FC00AA213348FFF7A4FE002210212F4800F059
:10040C0087FE012220212D4800F082FEAA212C48D3
:10041C00FFF796FEFA2000F0EFFB01220821274897
:10042C0000F076FE00212648FFF78AFE00221021FC
:10043C00224800F06DFE01222021204800F068FEC9
:10044C0000211F48FFF77CFEFA2000F0D5FB0122AB
:10045C0008211A4800F05CFE01211948FFF770FED4
:10046C0001221021154800F053FE01211448FFF71A
:10047C0067FE01222021114800F04AFE012110489C
:10048C00FFF75EFE642000F0B7FB012208210B4849
:10049C0000F03EFE03210A48FFF752FE0122102114
:1004AC00064800F035FE03210548FFF749FE0122FE
:1004BC002021024800F02CFE04E000BF000C01409B
:1004CC00000801400321D348FFF73AFE642000F0F6
:1004DC0093FB01220821D04800F01AFE0721CD48D9
:1004EC00FFF72EFE01221021CB4800F011FE072150
:1004FC00C848FFF725FE01222021C74800F008FE5E
:10050C000721C448FFF71CFE642000F075FB012294
:10051C000821C14800F0FCFD0F21BE48FFF710FE7A
:10052C0001221021BC4800F0F3FD0F21B948FFF760
:10053C0007FE01222021B84800F0EAFD0F21B54842
:10054C00FFF7FEFD642000F057FB01220821B248A2
:10055C0000F0DEFD1F21AF48FFF7F2FD0122102154
:10056C00AD4800F0D5FD1F21AA48FFF7E9FD012297
:10057C002021A94800F0CCFD1F21A648FFF7E0FD83
:10058C00642000F039FB01220821A34800F0C0FDD3
:10059C003F21A048FFF7D4FD012210219E4800F016
:1005AC00B7FD3F219B48FFF7CBFD012220219A4844
:1005BC0000F0AEFD3F219748FFF7C2FD642000F02C
:1005CC001BFB01220821944800F0A2FD7F219148D9
:1005DC00FFF7B6FD012210218F4800F099FD7F2115
:1005EC008C48FFF7ADFD012220218B4800F090FDD7
:1005FC007F218848FFF7A4FD642000F0FDFA01225A
:10060C000821854800F084FDFF218248FFF798FD02
:10061C0001221021804800F07BFDFF217D48FFF76F
:10062C008FFD012220217C4800F072FDFF217948CA
:10063C00FFF786FD642000F0DFFA012208217648DE
:10064C0000F066FD40F2FF117248FFF779FD0122C0
:10065C001021714800F05CFD40F2FF116D48FFF76E
:10066C006FFD012220216C4800F052FD40F2FF1179
:10067C006848FFF765FD642000F0BEFA01220821EE
:10068C00654800F045FD40F2FF116248FFF758FD48
:10069C0001221021604800F03BFD40F2FF115D4843
:1006AC00FFF74EFD012220215B4800F031FD40F2A6
:1006BC00FF115848FFF744FD642000F09DFA012219
:1006CC000821554800F024FDFF215248FFF738FD62
:1006DC0001221021504800F01BFDFF214D48FFF76F
:1006EC002FFD012220214C4800F012FDFF2149482A
:1006FC00FFF726FD642000F07FFA0122082146480E
:10070C0000F006FD7F214348FFF71AFD012210215E
:10071C00414800F0FDFC7F213E48FFF711FD01220E
:10072C0020213D4800F0F4FC7F213A48FFF708FDFA
:10073C00642000F061FA01220821374800F0E8FC3F
:10074C003F213448FFF7FCFC01221021324800F015
:10075C00DFFC3F212F48FFF7F3FC012220212E481C
:10076C0000F0D6FC3F212B48FFF7EAFC642000F098
:10077C0043FA01220821284800F0CAFC1F21254811
:10078C00FFF7DEFC01221021234800F0C1FC1F21E1
:10079C002048FFF7D5FC012220211F4800F0B8FCAF
:1007AC001F211C48FFF7CCFC642000F025FA012225
:1007BC000821194800F0ACFC0F211648FFF7C0FCCB
:1007CC0001221021144800F0A3FC0F211148FFF75F
:1007DC00B7FC01222021104800F09AFC0F210D4893
:1007EC00FFF7AEFC642000F007FA012208210A484A
:1007FC0000F08EFC07210748FFF7A2FC0122102114
:10080C00054800F085FC07210248FFF799FC0122FE
:10081C00202103E000080140000C01402F4800F0AB
:10082C0077FC07212E48FFF78BFC642000F0E4F9DD
:10083C0001220821294800F06BFC03212848FFF70E
:10084C007FFC01221021254800F062FC0321244882
:10085C00FFF776FC01222021204800F059FC0321EF
:10086C001F48FFF76DFC642000F0C6F901211C48FD
:10087C00FFF766FC01221021184800F049FC012109
:10088C001748FFF75DFC01222021144800F040FCC2
:10089C0001211348FFF754FC642000F0ADF901224C
:1008AC0008210E4800F034FC00210D48FFF748FCED
:1008BC0001221021094800F02BFC00210848FFF709
:1008CC003FFC01222021054800F022FC00210448B5
:1008DC00FFF736FCFA2000F08FF962E4000C0140BF
:1008EC000008014080B590B000AF07F11803282232
:1008FC000021184601F002F83B1D00221A605A60D4
:10090C009A60DA601A610223BB610123BB62102377
:10091C00FB6200237B6307F11803184600F010FC00
:10092C000346002B01D000F079F80F237B600023E5
:10093C00BB600023FB6000233B6100237B613B1DFC
:10094C000021184600F07EFE0346002B01D000F07B
:10095C0065F800BF4037BD4680BD000080B588B04B
:10096C0000AF07F1100300221A605A609A60DA6037
:10097C00274B9B69264A43F020039361244B9B69C8
:10098C0003F02003FB60FB68214B9B69204A43F07A
:10099C00040393611E4B9B6903F00403BB60BB68AB
:1009AC001B4B9B691A4A43F008039361184B9B69D4
:1009BC0003F008037B607B68002240F2FF111548AE
:1009CC0000F0A6FB00223821134800F0A1FB40F2F6
:1009DC00FF133B6101237B610023BB610223FB619D
:1009EC0007F1100319460B4800F00EFA38233B614F
:1009FC0001237B610023BB610223FB6107F1100320
:100A0C001946054800F000FA00BF2037BD4680BDEE
:100A1C000010024000080140000C014080B400AFFF
:100A2C0072B600BFFEE7000080B485B000AF154B76
:100A3C009B69144A43F001039361124B9B6903F0C9
:100A4C000103BB60BB680F4BDB690E4A43F080535C
:100A5C00D3610C4BDB6903F080537B607B680A4BE2
:100A6C005B68FB60FB6823F0E063FB60FB6843F0B2
:100A7C000073FB60044AFB68536000BF1437BD462B
:100A8C0080BC7047001002400000014080B400AFF1
:100A9C00FEE780B400AFFEE780B400AFFEE780B4A1
:100AAC0000AFFEE780B400AFFEE780B400AF00BF3C
:100ABC00BD4680BC704780B400AF00BFBD4680BC53
:100ACC00704780B400AF00BFBD4680BC704780B596
:100ADC0000AF00F075F800BF80BD80B400AF00BF60
:100AEC00BD4680BC70470000FFF7F7FF0B480C4970
:100AFC000C4A002302E0D458C4500433C4188C426E
:100B0C00F9D3094A094C002301E013600432A242D4
:100B1C00FBD300F0FBFEFFF721FB70470000002029
:100B2C000C000020A41900080C0000202C00002050
:100B3C00FEE7000080B500AF084B1B68074A43F086
:100B4C0010031360032000F02BF90F2000F008F8BD
:100B5C00FFF76AFF0023184680BD00BF002002404B
:100B6C0080B582B000AF7860124B1A68124B1B78BC
:100B7C0019464FF47A73B3FBF1F3B2FBF3F3184657
:100B8C0000F035F90346002B01D001230EE07B6801
:100B9C000F2B0AD8002279684FF0FF3000F00BF9C8
:100BAC00064A7B681360002300E0012318460837CF
:100BBC00BD4680BD0000002008000020040000207D
:100BCC0080B400AF054B1B781A46054B1B681344C9
:100BDC00034A136000BFBD4680BC7047080000206C
:100BEC002800002080B400AF024B1B681846BD469D
:100BFC0080BC70472800002080B584B000AF7860BE
:100C0C00FFF7F0FFB8607B68FB60FB68B3F1FF3F58
:100C1C0005D00A4B1B781A46FB681344FB6000BFD7
:100C2C00FFF7E0FF0246BB68D31AFA689A42F7D87E
:100C3C0000BF00BF1037BD4680BD00BF08000020BC
:100C4C0080B485B000AF78607B6803F00703FB606D
:100C5C000C4BDB68BB60BA684FF6FF031340BB60FC
:100C6C00FB681A02BB68134343F0BF6343F40033C1
:100C7C00BB60044ABB68D36000BF1437BD4680BC60
:100C8C00704700BF00ED00E080B400AF044BDB68A0
:100C9C001B0A03F007031846BD4680BC704700BF13
:100CAC0000ED00E080B483B000AF03463960FB7107
:100CBC0097F90730002B0ADB3B68DAB20C4997F93D
:100CCC0007301201D2B20B4483F800230AE03B68D0
:100CDC00DAB20849FB7903F00F03043B1201D2B2DC
:100CEC000B441A7600BF0C37BD4680BC704700BF62
:100CFC0000E100E000ED00E080B489B000AFF860E6
:100D0C00B9607A60FB6803F00703FB61FB69C3F110
:100D1C000703042B28BF0423BB61FB690433062B98
:100D2C0002D9FB69033B00E000237B614FF0FF32EB
:100D3C00BB6902FA03F3DA43BB681A407B699A4039
:100D4C004FF0FF317B6901FA03F3D9437B680B4009
:100D5C00134318462437BD4680BC704780B582B01B
:100D6C0000AF78607B68013BB3F1807F01D3012336
:100D7C000FE00A4A7B68013B53600F214FF0FF30B4
:100D8C00FFF790FF054B00229A60044B07221A6074
:100D9C00002318460837BD4680BD00BF10E000E0B8
:100DAC0080B582B000AF78607868FFF749FF00BF6C
:100DBC000837BD4680BD80B586B000AF0346B9602C
:100DCC007A60FB7300237B61FFF75EFF78617A68C2
:100DDC00B9687869FFF790FF024697F90F30114612
:100DEC001846FFF75FFF00BF1837BD4680BD80B5C2
:100DFC0082B000AF78607868FFF7B0FF0346184602
:100E0C000837BD4680BD000080B48BB000AF786061
:100E1C00396000237B6200233B6269E101227B6A1B
:100E2C0002FA03F3FB613B681B68FA691340BB6170
:100E3C00BA69FB699A4240F058813B685B689A4AF0
:100E4C0093425ED0984A934275D8984A934258D0B0
:100E5C00964A93426FD8964A934252D0944A934200
:100E6C0069D8944A93424CD0924A934263D8924A9E
:100E7C00934246D0904A93425DD8122B2AD8122B1B
:100E8C0059D801A252F823F00F0F0008E90E000800
:100E9C00FB0E00083D0F0008430F0008430F00082D
:100EAC00430F0008430F0008430F0008430F0008CE
:100EBC00430F0008430F0008430F0008430F0008BE
:100ECC00430F0008430F0008430F0008F10E000801
:100EDC00050F0008794A934213D02CE03B68DB687D
:100EEC003B6229E03B68DB6804333B6224E03B68EF
:100EFC00DB6808333B621FE03B68DB680C333B620A
:100F0C001AE03B689B68002B02D104233B6213E080
:100F1C003B689B68012B05D108233B627B68FA690F
:100F2C001A6109E008233B627B68FA695A6103E0A5
:100F3C0000233B6200E000BFBB69FF2B01D87B683C
:100F4C0001E07B6804337B61BB69FF2B02D87B6AB1
:100F5C009B0002E07B6A083B9B003B617B691A6843
:100F6C000F213B6901FA03F3DB431A40396A3B69F1
:100F7C0001FA03F31A437B691A603B685B6803F060
:100F8C008053002B00F0B1804D4B9B694C4A43F0D1
:100F9C00010393614A4B9B6903F00103BB60BB687F
:100FAC00484A7B6A9B08023352F82330FB607B6A09
:100FBC0003F003039B000F2202FA03F3DB43FA68EE
:100FCC001340FB607B68404A934213D07B683F4AD6
:100FDC0093420DD07B683E4A934207D07B683D4AD2
:100FEC00934201D1032306E0042304E0022302E030
:100FFC00012300E000237A6A02F00302920093407E
:10100C00FA681343FB602F497B6A9B080233FA682A
:10101C0041F823203B685B6803F48013002B06D057
:10102C002D4B9A682C49BB6913438B6006E02A4B05
:10103C009A68BB69DB43284913408B603B685B684B
:10104C0003F40013002B06D0234BDA682249BB694A
:10105C001343CB6006E0204BDA68BB69DB431E49C7
:10106C001340CB603B685B6803F40033002B06D065
:10107C00194B5A681849BB6913434B6006E0164B71
:10108C005A68BB69DB43144913404B603B685B688F
:10109C0003F48033002B21D00F4B1A680E49BB6927
:1010AC0013430B6021E000BF000032100000311030
:1010BC00000022100000211000001210000011107E
:1010CC00001002400000014000080140000C0140EB
:1010DC000010014000140140000401400B4B1A6841
:1010EC00BB69DB43094913400B607B6A01337B62AC
:1010FC003B681A687B6A22FA03F3002B7FF48EAEEE
:10110C0000BF00BF2C37BD4680BC704700040140B7
:10111C0080B483B000AF78600B467B8013467B7045
:10112C007B78002B03D07A887B681A6103E07B887C
:10113C001A047B681A6100BF0C37BD4680BC70472F
:10114C0080B586B000AF78607B68002B01D101239D
:10115C0072E27B681B6803F00103002B00F08780B0
:10116C00924B5B6803F00C03042B0CD08F4B5B6829
:10117C0003F00C03082B12D18C4B5B6803F4803307
:10118C00B3F5803F0BD1894B1B6803F40033002B64
:10119C006CD07B685B68002B68D101234CE27B68C8
:1011AC005B68B3F5803F06D1804B1B687F4A43F4E4
:1011BC00803313602EE07B685B68002B0CD17B4B7B
:1011CC001B687A4A23F480331360784B1B68774A88
:1011DC0023F4802313601DE07B685B68B3F5A02FBC
:1011EC000CD1724B1B68714A43F4802313606F4B14
:1011FC001B686E4A43F4803313600BE06B4B1B6827
:10120C006A4A23F480331360684B1B68674A23F4E3
:10121C00802313607B685B68002B13D0FFF7E2FC24
:10122C00386108E0FFF7DEFC02463B69D31A642BF9
:10123C0001D9032300E25D4B1B6803F40033002B40
:10124C00F0D014E0FFF7CEFC386108E0FFF7CAFCE1
:10125C0002463B69D31A642B01D90323ECE1534BAF
:10126C001B6803F40033002BF0D100E000BF7B6857
:10127C001B6803F00203002B63D04C4B5B6803F03C
:10128C000C03002B0BD0494B5B6803F00C03082BB1
:10129C001CD1464B5B6803F48033002B16D1434BB7
:1012AC001B6803F00203002B05D07B681B69012B24
:1012BC0001D00123C0E13D4B1B6823F0F8027B6891
:1012CC005B69DB00394913430B603AE07B681B69AF
:1012DC00002B20D0364B01221A60FFF783FC3861BB
:1012EC0008E0FFF77FFC02463B69D31A022B01D9B9
:1012FC000323A1E12D4B1B6803F00203002BF0D05C
:10130C002A4B1B6823F0F8027B685B69DB002749DA
:10131C0013430B6015E0264B00221A60FFF762FCAA
:10132C00386108E0FFF75EFC02463B69D31A022BDA
:10133C0001D9032380E11D4B1B6803F00203002B32
:10134C00F0D17B681B6803F00803002B3AD07B6854
:10135C009B69002B19D0174B01221A60FFF742FC36
:10136C00386108E0FFF73EFC02463B69D31A022BBA
:10137C0001D9032360E10D4B5B6A03F00203002BE0
:10138C00F0D0012000F09CFA1CE00A4B00221A60FD
:10139C00FFF728FC38610FE0FFF724FC02463B699D
:1013AC00D31A022B08D9032346E100BF00100240D8
:1013BC000000424280044242924B5B6A03F00203FB
:1013CC00002BE9D17B681B6803F00403002B00F0B1
:1013DC00A6800023FB758B4BDB6903F08053002B3D
:1013EC000DD1884BDB69874A43F08053D361854B21
:1013FC00DB6903F08053BB60BB680123FB75824B38
:10140C001B6803F48073002B18D17F4B1B687E4A3A
:10141C0043F480731360FFF7E5FB386108E0FFF7D6
:10142C00E1FB02463B69D31A642B01D9032303E188
:10143C00754B1B6803F48073002BF0D07B68DB6862
:10144C00012B06D16F4B1B6A6E4A43F001031362EA
:10145C002DE07B68DB68002B0CD16A4B1B6A694A58
:10146C0023F001031362674B1B6A664A23F00403E3
:10147C0013621CE07B68DB68052B0CD1614B1B6A8B
:10148C00604A43F0040313625E4B1B6A5D4A43F0EF
:10149C00010313620BE05B4B1B6A5A4A23F00103F6
:1014AC001362584B1B6A574A23F0040313627B6880
:1014BC00DB68002B15D0FFF795FB38610AE0FFF7CE
:1014CC0091FB02463B69D31A41F28832934201D90F
:1014DC000323B1E04B4B1B6A03F00203002BEED04D
:1014EC0014E0FFF77FFB38610AE0FFF77BFB024655
:1014FC003B69D31A41F28832934201D903239BE012
:10150C00404B1B6A03F00203002BEED1FB7D012B39
:10151C0005D13C4BDB693B4A23F08053D3617B689C
:10152C00DB69002B00F08780364B5B6803F00C0303
:10153C00082B61D07B68DB69022B46D1334B002230
:10154C001A60FFF74FFB386108E0FFF74BFB0246D0
:10155C003B69D31A022B01D903236DE0294B1B687D
:10156C0003F00073002BF0D17B681B6AB3F5803F4E
:10157C0008D1244B5B6823F400327B689B682149BB
:10158C0013434B601F4B5B6823F474127B68196A1E
:10159C007B685B6A0B431B4913434B601B4B01225B
:1015AC001A60FFF71FFB386108E0FFF71BFB0246D0
:1015BC003B69D31A022B01D903233DE0114B1B6865
:1015CC0003F00073002BF0D035E0104B00221A60B2
:1015DC00FFF708FB386108E0FFF704FB02463B69A4
:1015EC00D31A022B01D9032326E0064B1B6803F008
:1015FC000073002BF0D11EE07B68DB69012B07D157
:10160C00012319E0001002400070004060004242CB
:10161C000B4B5B68FB60FB6803F480327B681B6AD6
:10162C009A4206D1FB6803F470127B685B6A9A429B
:10163C0001D0012300E0002318461837BD4680BDB9
:10164C000010024080B584B000AF786039607B68D0
:10165C00002B01D10123D0E06A4B1B6803F0070378
:10166C003A689A4210D9674B1B6823F00702654908
:10167C003B6813430B60634B1B6803F007033A682A
:10168C009A4201D00123B8E07B681B6803F0020387
:10169C00002B20D07B681B6803F00403002B05D0C3
:1016AC00594B5B68584A43F4E06353607B681B6892
:1016BC0003F00803002B05D0534B5B68524A43F4EC
:1016CC0060535360504B5B6823F0F0027B689B685F
:1016DC004D4913434B607B681B6803F00103002BDF
:1016EC0040D07B685B68012B07D1474B1B6803F428
:1016FC000033002B15D101237FE07B685B68022B44
:10170C0007D1414B1B6803F00073002B09D1012357
:10171C0073E03D4B1B6803F00203002B01D1012346
:10172C006BE0394B5B6823F003027B685B683649DE
:10173C0013434B60FFF756FAF8600AE0FFF752FAD2
:10174C000246FB68D31A41F28832934201D9032333
:10175C0053E02D4B5B6803F00C027B685B689B00CD
:10176C009A42EBD1274B1B6803F007033A689A4265
:10177C0010D2244B1B6823F0070222493B68134309
:10178C000B60204B1B6803F007033A689A4201D0A8
:10179C00012332E07B681B6803F00403002B08D0A4
:1017AC00194B5B6823F4E0627B68DB6816491343D2
:1017BC004B607B681B6803F00803002B09D0124BAD
:1017CC005B6823F460527B681B69DB000E49134392
:1017DC004B6000F021F802460B4B5B681B0903F0D1
:1017EC000F030A49CB5C22FA03F3094A1360094B35
:1017FC001B681846FFF7B4F9002318461037BD468E
:10180C0080BD00BF00200240001002407819000883
:10181C00000000200400002080B487B000AF00233B
:10182C00FB600023BB6000237B6100237B600023F3
:10183C003B611E4B5B68FB60FB6803F00C03042BE5
:10184C0002D0082B03D027E0194B3B6127E0FB6843
:10185C009B0C03F00F03174AD35C7B60FB6803F40B
:10186C008033002B10D0114B5B685B0C03F0010331
:10187C00114AD35CBB607B680D4A03FB02F2BB6868
:10188C00B2FBF3F37B6104E07B680C4A02FB03F3CD
:10189C007B617B693B6102E0054B3B6100BF3B69AF
:1018AC0018461C37BD4680BC704700BF0010024074
:1018BC0000127A00881900089819000800093D00E8
:1018CC0080B485B000AF78600A4B1B680A4AA2FB53
:1018DC0003235B0A7A6802FB03F3FB6000BFFB681F
:1018EC005A1EFA60002BF9D100BF00BF1437BD4659
:1018FC0080BC704700000020D34D621003460244A8
:10190C00934200D1704703F8011BF9E770B500262C
:10191C000C4D0D4C641BA410A64209D100F01AF812
:10192C0000260A4D0A4C641BA410A64205D170BDBA
:10193C0055F8043B98470136EEE755F8043B9847B9
:10194C000136F2E79C1900089C1900089C19000844
:10195C00A0190008F8B500BFF8BC08BC9E4670473B
:0C196C00F8B500BFF8BC08BC9E467047F0
:101978000000000000000000010203040607080937
:1019880002030405060708090A0B0C0D0E0F1010B8
:041998000102000048
:04199C00310100080D
:0419A0000D0100082D
:0C19A4000024F40010000000010000000E
:0400000508000AF5F0
:00000001FF
